{
  "contractName": "BambooFinance",
  "abi": [
    {
      "constant": true,
      "inputs": [],
      "name": "name",
      "outputs": [
        {
          "name": "",
          "type": "string"
        }
      ],
      "payable": false,
      "stateMutability": "view",
      "type": "function"
    },
    {
      "constant": true,
      "inputs": [],
      "name": "totalSupply",
      "outputs": [
        {
          "name": "",
          "type": "uint256"
        }
      ],
      "payable": false,
      "stateMutability": "view",
      "type": "function"
    },
    {
      "constant": true,
      "inputs": [],
      "name": "decimals",
      "outputs": [
        {
          "name": "",
          "type": "uint8"
        }
      ],
      "payable": false,
      "stateMutability": "view",
      "type": "function"
    },
    {
      "constant": true,
      "inputs": [],
      "name": "contactInformation",
      "outputs": [
        {
          "name": "",
          "type": "string"
        }
      ],
      "payable": false,
      "stateMutability": "view",
      "type": "function"
    },
    {
      "constant": true,
      "inputs": [
        {
          "name": "",
          "type": "address"
        }
      ],
      "name": "balanceOf",
      "outputs": [
        {
          "name": "",
          "type": "uint256"
        }
      ],
      "payable": false,
      "stateMutability": "view",
      "type": "function"
    },
    {
      "constant": true,
      "inputs": [],
      "name": "owner",
      "outputs": [
        {
          "name": "",
          "type": "address"
        }
      ],
      "payable": false,
      "stateMutability": "view",
      "type": "function"
    },
    {
      "constant": true,
      "inputs": [],
      "name": "symbol",
      "outputs": [
        {
          "name": "",
          "type": "string"
        }
      ],
      "payable": false,
      "stateMutability": "view",
      "type": "function"
    },
    {
      "constant": true,
      "inputs": [
        {
          "name": "",
          "type": "address"
        }
      ],
      "name": "approvedMint",
      "outputs": [
        {
          "name": "",
          "type": "bool"
        }
      ],
      "payable": false,
      "stateMutability": "view",
      "type": "function"
    },
    {
      "constant": true,
      "inputs": [
        {
          "name": "",
          "type": "address"
        },
        {
          "name": "",
          "type": "address"
        }
      ],
      "name": "allowance",
      "outputs": [
        {
          "name": "",
          "type": "uint256"
        }
      ],
      "payable": false,
      "stateMutability": "view",
      "type": "function"
    },
    {
      "constant": false,
      "inputs": [
        {
          "name": "_newOwner",
          "type": "address"
        }
      ],
      "name": "transferOwnership",
      "outputs": [
        {
          "name": "success",
          "type": "bool"
        }
      ],
      "payable": false,
      "stateMutability": "nonpayable",
      "type": "function"
    },
    {
      "inputs": [
        {
          "name": "_initialSupply",
          "type": "uint256"
        },
        {
          "name": "_initialValue",
          "type": "uint256"
        },
        {
          "name": "_contactInformation",
          "type": "string"
        }
      ],
      "payable": false,
      "stateMutability": "nonpayable",
      "type": "constructor"
    },
    {
      "payable": true,
      "stateMutability": "payable",
      "type": "fallback"
    },
    {
      "anonymous": false,
      "inputs": [
        {
          "indexed": true,
          "name": "_from",
          "type": "address"
        },
        {
          "indexed": true,
          "name": "_to",
          "type": "address"
        },
        {
          "indexed": false,
          "name": "_value",
          "type": "uint256"
        }
      ],
      "name": "Transfer",
      "type": "event"
    },
    {
      "anonymous": false,
      "inputs": [
        {
          "indexed": true,
          "name": "_owner",
          "type": "address"
        },
        {
          "indexed": true,
          "name": "_spender",
          "type": "address"
        },
        {
          "indexed": false,
          "name": "_value",
          "type": "uint256"
        }
      ],
      "name": "Approval",
      "type": "event"
    },
    {
      "anonymous": false,
      "inputs": [
        {
          "indexed": true,
          "name": "_account",
          "type": "address"
        },
        {
          "indexed": false,
          "name": "_approval",
          "type": "bool"
        }
      ],
      "name": "SetMinter",
      "type": "event"
    },
    {
      "anonymous": false,
      "inputs": [
        {
          "indexed": true,
          "name": "_from",
          "type": "address"
        },
        {
          "indexed": true,
          "name": "_to",
          "type": "address"
        },
        {
          "indexed": false,
          "name": "_value",
          "type": "uint256"
        }
      ],
      "name": "Mint",
      "type": "event"
    },
    {
      "anonymous": false,
      "inputs": [
        {
          "indexed": true,
          "name": "_from",
          "type": "address"
        },
        {
          "indexed": false,
          "name": "_value",
          "type": "uint256"
        }
      ],
      "name": "Burn",
      "type": "event"
    },
    {
      "anonymous": false,
      "inputs": [
        {
          "indexed": true,
          "name": "_account",
          "type": "address"
        },
        {
          "indexed": false,
          "name": "_value",
          "type": "uint256"
        }
      ],
      "name": "Withdraw",
      "type": "event"
    },
    {
      "anonymous": false,
      "inputs": [
        {
          "indexed": true,
          "name": "_account",
          "type": "address"
        },
        {
          "indexed": false,
          "name": "_value",
          "type": "uint256"
        }
      ],
      "name": "Deposit",
      "type": "event"
    },
    {
      "anonymous": false,
      "inputs": [
        {
          "indexed": true,
          "name": "_account",
          "type": "address"
        },
        {
          "indexed": false,
          "name": "_value",
          "type": "uint256"
        }
      ],
      "name": "Donation",
      "type": "event"
    },
    {
      "anonymous": false,
      "inputs": [
        {
          "indexed": true,
          "name": "_account",
          "type": "address"
        }
      ],
      "name": "EndOfContract",
      "type": "event"
    },
    {
      "anonymous": false,
      "inputs": [
        {
          "indexed": true,
          "name": "_previousOwner",
          "type": "address"
        },
        {
          "indexed": true,
          "name": "_newOwner",
          "type": "address"
        }
      ],
      "name": "OwnershipTransferred",
      "type": "event"
    },
    {
      "constant": false,
      "inputs": [
        {
          "name": "_oracle",
          "type": "address"
        }
      ],
      "name": "setOracle",
      "outputs": [
        {
          "name": "success",
          "type": "bool"
        }
      ],
      "payable": false,
      "stateMutability": "nonpayable",
      "type": "function"
    },
    {
      "constant": false,
      "inputs": [
        {
          "name": "_contactInformation",
          "type": "string"
        }
      ],
      "name": "setContactInformation",
      "outputs": [
        {
          "name": "success",
          "type": "bool"
        }
      ],
      "payable": false,
      "stateMutability": "nonpayable",
      "type": "function"
    },
    {
      "constant": false,
      "inputs": [
        {
          "name": "_to",
          "type": "address"
        },
        {
          "name": "_value",
          "type": "uint256"
        }
      ],
      "name": "transfer",
      "outputs": [
        {
          "name": "success",
          "type": "bool"
        }
      ],
      "payable": false,
      "stateMutability": "nonpayable",
      "type": "function"
    },
    {
      "constant": false,
      "inputs": [
        {
          "name": "_spender",
          "type": "address"
        },
        {
          "name": "_value",
          "type": "uint256"
        }
      ],
      "name": "approve",
      "outputs": [
        {
          "name": "success",
          "type": "bool"
        }
      ],
      "payable": false,
      "stateMutability": "nonpayable",
      "type": "function"
    },
    {
      "constant": false,
      "inputs": [
        {
          "name": "_from",
          "type": "address"
        },
        {
          "name": "_to",
          "type": "address"
        },
        {
          "name": "_value",
          "type": "uint256"
        }
      ],
      "name": "transferFrom",
      "outputs": [
        {
          "name": "success",
          "type": "bool"
        }
      ],
      "payable": false,
      "stateMutability": "nonpayable",
      "type": "function"
    },
    {
      "constant": false,
      "inputs": [
        {
          "name": "_value",
          "type": "uint256"
        }
      ],
      "name": "burn",
      "outputs": [
        {
          "name": "success",
          "type": "bool"
        }
      ],
      "payable": false,
      "stateMutability": "nonpayable",
      "type": "function"
    },
    {
      "constant": false,
      "inputs": [
        {
          "name": "_from",
          "type": "address"
        },
        {
          "name": "_value",
          "type": "uint256"
        }
      ],
      "name": "burnFrom",
      "outputs": [
        {
          "name": "success",
          "type": "bool"
        }
      ],
      "payable": false,
      "stateMutability": "nonpayable",
      "type": "function"
    },
    {
      "constant": false,
      "inputs": [
        {
          "name": "_account",
          "type": "address"
        },
        {
          "name": "_approval",
          "type": "bool"
        }
      ],
      "name": "setApprovedMint",
      "outputs": [
        {
          "name": "success",
          "type": "bool"
        }
      ],
      "payable": false,
      "stateMutability": "nonpayable",
      "type": "function"
    },
    {
      "constant": false,
      "inputs": [
        {
          "name": "_to",
          "type": "address"
        },
        {
          "name": "_value",
          "type": "uint256"
        }
      ],
      "name": "mint",
      "outputs": [
        {
          "name": "success",
          "type": "bool"
        }
      ],
      "payable": false,
      "stateMutability": "nonpayable",
      "type": "function"
    },
    {
      "constant": false,
      "inputs": [],
      "name": "calculateShares",
      "outputs": [
        {
          "name": "success",
          "type": "bool"
        }
      ],
      "payable": false,
      "stateMutability": "nonpayable",
      "type": "function"
    },
    {
      "constant": true,
      "inputs": [],
      "name": "getTotalCredit",
      "outputs": [
        {
          "name": "",
          "type": "uint256"
        }
      ],
      "payable": false,
      "stateMutability": "view",
      "type": "function"
    },
    {
      "constant": false,
      "inputs": [],
      "name": "deposit",
      "outputs": [
        {
          "name": "success",
          "type": "bool"
        }
      ],
      "payable": true,
      "stateMutability": "payable",
      "type": "function"
    },
    {
      "constant": false,
      "inputs": [],
      "name": "withdrawShare",
      "outputs": [
        {
          "name": "success",
          "type": "bool"
        }
      ],
      "payable": false,
      "stateMutability": "nonpayable",
      "type": "function"
    },
    {
      "constant": false,
      "inputs": [
        {
          "name": "_to",
          "type": "address"
        }
      ],
      "name": "destroy",
      "outputs": [],
      "payable": false,
      "stateMutability": "nonpayable",
      "type": "function"
    }
  ],
  "bytecode": "0x60806040526040805190810160405280601481526020017f42616d626f6f2046696e616e636520546f6b656e000000000000000000000000815250600190805190602001906200005192919062000222565b506040805190810160405280600681526020017f42414d424f4f0000000000000000000000000000000000000000000000000000815250600290805190602001906200009f92919062000222565b506000600460006101000a81548160ff021916908360ff160217905550600c600655348015620000ce57600080fd5b5060405162002d8a38038062002d8a833981018060405281019080805190602001909291908051906020019092919080518201929190505050336000806101000a81548173ffffffffffffffffffffffffffffffffffffffff021916908373ffffffffffffffffffffffffffffffffffffffff160217905550426008819055508260058190555081600781905550600060098190555082600d60003373ffffffffffffffffffffffffffffffffffffffff1673ffffffffffffffffffffffffffffffffffffffff168152602001908152602001600020819055506001600f60003373ffffffffffffffffffffffffffffffffffffffff1673ffffffffffffffffffffffffffffffffffffffff16815260200190815260200160002060006101000a81548160ff02191690831515021790555080600390805190602001906200021892919062000222565b50505050620002d1565b828054600181600116156101000203166002900490600052602060002090601f016020900481019282601f106200026557805160ff191683800117855562000296565b8280016001018555821562000296579182015b828111156200029557825182559160200191906001019062000278565b5b509050620002a59190620002a9565b5090565b620002ce91905b80821115620002ca576000816000905550600101620002b0565b5090565b90565b612aa980620002e16000396000f30060806040526004361061013d576000357c0100000000000000000000000000000000000000000000000000000000900463ffffffff168062f55d9d1461019757806306fdde03146101da578063095ea7b31461026a57806318160ddd146102cf57806323b872dd146102fa578063243496711461037f578063313ce567146103ae57806336f7ab5e146103df57806340c10f191461046f57806342966c68146104d457806350566f75146105195780636660a2c21461058057806370a08231146105af57806379cc6790146106065780637adbf9731461066b5780638da5cb5b146106c657806395d89b411461071d578063a9059cbb146107ad578063b967a52e14610812578063c2b885a114610893578063d0e30db0146108ee578063dd62ed3e14610910578063f2fde38b14610987578063f3057608146109e2575b6000341115610195573373ffffffffffffffffffffffffffffffffffffffff167f5d8bc849764969eb1bcc6d0a2f55999d0167c1ccec240a4f39cf664ca9c4148e346040518082815260200191505060405180910390a25b005b3480156101a357600080fd5b506101d8600480360381019080803573ffffffffffffffffffffffffffffffffffffffff169060200190929190505050610a0d565b005b3480156101e657600080fd5b506101ef610bdf565b6040518080602001828103825283818151815260200191508051906020019080838360005b8381101561022f578082015181840152602081019050610214565b50505050905090810190601f16801561025c5780820380516001836020036101000a031916815260200191505b509250505060405180910390f35b34801561027657600080fd5b506102b5600480360381019080803573ffffffffffffffffffffffffffffffffffffffff16906020019092919080359060200190929190505050610c7d565b604051808215151515815260200191505060405180910390f35b3480156102db57600080fd5b506102e4610daa565b6040518082815260200191505060405180910390f35b34801561030657600080fd5b50610365600480360381019080803573ffffffffffffffffffffffffffffffffffffffff169060200190929190803573ffffffffffffffffffffffffffffffffffffffff16906020019092919080359060200190929190505050610db0565b604051808215151515815260200191505060405180910390f35b34801561038b57600080fd5b50610394610f62565b604051808215151515815260200191505060405180910390f35b3480156103ba57600080fd5b506103c3611055565b604051808260ff1660ff16815260200191505060405180910390f35b3480156103eb57600080fd5b506103f4611068565b6040518080602001828103825283818151815260200191508051906020019080838360005b83811015610434578082015181840152602081019050610419565b50505050905090810190601f1680156104615780820380516001836020036101000a031916815260200191505b509250505060405180910390f35b34801561047b57600080fd5b506104ba600480360381019080803573ffffffffffffffffffffffffffffffffffffffff16906020019092919080359060200190929190505050611106565b604051808215151515815260200191505060405180910390f35b3480156104e057600080fd5b506104ff60048036038101908080359060200190929190505050611175565b604051808215151515815260200191505060405180910390f35b34801561052557600080fd5b50610566600480360381019080803573ffffffffffffffffffffffffffffffffffffffff16906020019092919080351515906020019092919050505061118a565b604051808215151515815260200191505060405180910390f35b34801561058c57600080fd5b506105956112d6565b604051808215151515815260200191505060405180910390f35b3480156105bb57600080fd5b506105f0600480360381019080803573ffffffffffffffffffffffffffffffffffffffff16906020019092919050505061145c565b6040518082815260200191505060405180910390f35b34801561061257600080fd5b50610651600480360381019080803573ffffffffffffffffffffffffffffffffffffffff16906020019092919080359060200190929190505050611474565b604051808215151515815260200191505060405180910390f35b34801561067757600080fd5b506106ac600480360381019080803573ffffffffffffffffffffffffffffffffffffffff169060200190929190505050611624565b604051808215151515815260200191505060405180910390f35b3480156106d257600080fd5b506106db611707565b604051808273ffffffffffffffffffffffffffffffffffffffff1673ffffffffffffffffffffffffffffffffffffffff16815260200191505060405180910390f35b34801561072957600080fd5b5061073261172c565b6040518080602001828103825283818151815260200191508051906020019080838360005b83811015610772578082015181840152602081019050610757565b50505050905090810190601f16801561079f5780820380516001836020036101000a031916815260200191505b509250505060405180910390f35b3480156107b957600080fd5b506107f8600480360381019080803573ffffffffffffffffffffffffffffffffffffffff169060200190929190803590602001909291905050506117ca565b604051808215151515815260200191505060405180910390f35b34801561081e57600080fd5b50610879600480360381019080803590602001908201803590602001908080601f01602080910402602001604051908101604052809392919081815260200183838082843782019150505050505091929192905050506117e1565b604051808215151515815260200191505060405180910390f35b34801561089f57600080fd5b506108d4600480360381019080803573ffffffffffffffffffffffffffffffffffffffff16906020019092919050505061185e565b604051808215151515815260200191505060405180910390f35b6108f661187e565b604051808215151515815260200191505060405180910390f35b34801561091c57600080fd5b50610971600480360381019080803573ffffffffffffffffffffffffffffffffffffffff169060200190929190803573ffffffffffffffffffffffffffffffffffffffff16906020019092919050505061192d565b6040518082815260200191505060405180910390f35b34801561099357600080fd5b506109c8600480360381019080803573ffffffffffffffffffffffffffffffffffffffff169060200190929190505050611952565b604051808215151515815260200191505060405180910390f35b3480156109ee57600080fd5b506109f76119c1565b6040518082815260200191505060405180910390f35b6000806000809054906101000a900473ffffffffffffffffffffffffffffffffffffffff1673ffffffffffffffffffffffffffffffffffffffff163373ffffffffffffffffffffffffffffffffffffffff16141515610a6b57600080fd5b610a736112d6565b1515610a7e57600080fd5b6009543073ffffffffffffffffffffffffffffffffffffffff163110151515610aa657600080fd5b3373ffffffffffffffffffffffffffffffffffffffff167ff45a46518225a25fcff72eb4126eed2db3bd4acab0c243f2422d1db0b6bd754c60405160405180910390a2600090505b600c80549050811015610bc65760106000600c83815481101515610b0e57fe5b9060005260206000200160009054906101000a900473ffffffffffffffffffffffffffffffffffffffff1673ffffffffffffffffffffffffffffffffffffffff1673ffffffffffffffffffffffffffffffffffffffff168152602001908152602001600020549150610bb9600c82815481101515610b8857fe5b9060005260206000200160009054906101000a900473ffffffffffffffffffffffffffffffffffffffff1683611a26565b8080600101915050610aee565b8273ffffffffffffffffffffffffffffffffffffffff16ff5b60018054600181600116156101000203166002900480601f016020809104026020016040519081016040528092919081815260200182805460018160011615610100020316600290048015610c755780601f10610c4a57610100808354040283529160200191610c75565b820191906000526020600020905b815481529060010190602001808311610c5857829003601f168201915b505050505081565b60008073ffffffffffffffffffffffffffffffffffffffff168373ffffffffffffffffffffffffffffffffffffffff1614151515610cba57600080fd5b81600e60003373ffffffffffffffffffffffffffffffffffffffff1673ffffffffffffffffffffffffffffffffffffffff16815260200190815260200160002060008573ffffffffffffffffffffffffffffffffffffffff1673ffffffffffffffffffffffffffffffffffffffff168152602001908152602001600020819055508273ffffffffffffffffffffffffffffffffffffffff163373ffffffffffffffffffffffffffffffffffffffff167f8c5be1e5ebec7d5bd14f71427d1e84f3dd0314c0f7b2291e5b200ac8c7c3b925846040518082815260200191505060405180910390a36001905092915050565b60055481565b600081600e60008673ffffffffffffffffffffffffffffffffffffffff1673ffffffffffffffffffffffffffffffffffffffff16815260200190815260200160002060003373ffffffffffffffffffffffffffffffffffffffff1673ffffffffffffffffffffffffffffffffffffffff1681526020019081526020016000205410151515610e3d57600080fd5b610ecc82600e60008773ffffffffffffffffffffffffffffffffffffffff1673ffffffffffffffffffffffffffffffffffffffff16815260200190815260200160002060003373ffffffffffffffffffffffffffffffffffffffff1673ffffffffffffffffffffffffffffffffffffffff16815260200190815260200160002054611b7b90919063ffffffff16565b600e60008673ffffffffffffffffffffffffffffffffffffffff1673ffffffffffffffffffffffffffffffffffffffff16815260200190815260200160002060003373ffffffffffffffffffffffffffffffffffffffff1673ffffffffffffffffffffffffffffffffffffffff16815260200190815260200160002081905550610f57848484611b9c565b600190509392505050565b6000806000601060003373ffffffffffffffffffffffffffffffffffffffff1673ffffffffffffffffffffffffffffffffffffffff16815260200190815260200160002054111515610fb357600080fd5b601060003373ffffffffffffffffffffffffffffffffffffffff1673ffffffffffffffffffffffffffffffffffffffff168152602001908152602001600020549050610fff3382611a26565b3373ffffffffffffffffffffffffffffffffffffffff167f884edad9ce6fa2440d8a54cc123490eb96d2768479d49ff9c7366125a9424364826040518082815260200191505060405180910390a2600191505090565b600460009054906101000a900460ff1681565b60038054600181600116156101000203166002900480601f0160208091040260200160405190810160405280929190818152602001828054600181600116156101000203166002900480156110fe5780601f106110d3576101008083540402835291602001916110fe565b820191906000526020600020905b8154815290600101906020018083116110e157829003601f168201915b505050505081565b6000600f60003373ffffffffffffffffffffffffffffffffffffffff1673ffffffffffffffffffffffffffffffffffffffff16815260200190815260200160002060009054906101000a900460ff16151561116057600080fd5b61116b338484611f5e565b6001905092915050565b60006111813383612163565b60019050919050565b60008060009054906101000a900473ffffffffffffffffffffffffffffffffffffffff1673ffffffffffffffffffffffffffffffffffffffff163373ffffffffffffffffffffffffffffffffffffffff161415156111e757600080fd5b600073ffffffffffffffffffffffffffffffffffffffff168373ffffffffffffffffffffffffffffffffffffffff161415151561122357600080fd5b81600f60008573ffffffffffffffffffffffffffffffffffffffff1673ffffffffffffffffffffffffffffffffffffffff16815260200190815260200160002060006101000a81548160ff0219169083151502179055508273ffffffffffffffffffffffffffffffffffffffff167f1f96bc657d385fd83da973a43f2ad969e6d96b6779b779571a7306db7ca1cd0083604051808215151515815260200191505060405180910390a26001905092915050565b6000806000806000809054906101000a900473ffffffffffffffffffffffffffffffffffffffff1673ffffffffffffffffffffffffffffffffffffffff163373ffffffffffffffffffffffffffffffffffffffff1614151561133757600080fd5b6000600c8054905011151561134b57600080fd5b6113536123e4565b60009250600091505b600c8054905082101561144b576113ab600c8381548110151561137b57fe5b9060005260206000200160009054906101000a900473ffffffffffffffffffffffffffffffffffffffff1661250b565b90508060106000600c858154811015156113c157fe5b9060005260206000200160009054906101000a900473ffffffffffffffffffffffffffffffffffffffff1673ffffffffffffffffffffffffffffffffffffffff1673ffffffffffffffffffffffffffffffffffffffff1681526020019081526020016000208190555061143d81846125fc90919063ffffffff16565b50818060010192505061135c565b826009819055506001935050505090565b600d6020528060005260406000206000915090505481565b600081600e60008573ffffffffffffffffffffffffffffffffffffffff1673ffffffffffffffffffffffffffffffffffffffff16815260200190815260200160002060003373ffffffffffffffffffffffffffffffffffffffff1673ffffffffffffffffffffffffffffffffffffffff168152602001908152602001600020541015151561150157600080fd5b61159082600e60008673ffffffffffffffffffffffffffffffffffffffff1673ffffffffffffffffffffffffffffffffffffffff16815260200190815260200160002060003373ffffffffffffffffffffffffffffffffffffffff1673ffffffffffffffffffffffffffffffffffffffff16815260200190815260200160002054611b7b90919063ffffffff16565b600e60008573ffffffffffffffffffffffffffffffffffffffff1673ffffffffffffffffffffffffffffffffffffffff16815260200190815260200160002060003373ffffffffffffffffffffffffffffffffffffffff1673ffffffffffffffffffffffffffffffffffffffff1681526020019081526020016000208190555061161a8383612163565b6001905092915050565b60008060009054906101000a900473ffffffffffffffffffffffffffffffffffffffff1673ffffffffffffffffffffffffffffffffffffffff163373ffffffffffffffffffffffffffffffffffffffff1614151561168157600080fd5b600073ffffffffffffffffffffffffffffffffffffffff168273ffffffffffffffffffffffffffffffffffffffff16141515156116bd57600080fd5b81600b60006101000a81548173ffffffffffffffffffffffffffffffffffffffff021916908373ffffffffffffffffffffffffffffffffffffffff16021790555060019050919050565b6000809054906101000a900473ffffffffffffffffffffffffffffffffffffffff1681565b60028054600181600116156101000203166002900480601f0160208091040260200160405190810160405280929190818152602001828054600181600116156101000203166002900480156117c25780601f10611797576101008083540402835291602001916117c2565b820191906000526020600020905b8154815290600101906020018083116117a557829003601f168201915b505050505081565b60006117d7338484611b9c565b6001905092915050565b60008060009054906101000a900473ffffffffffffffffffffffffffffffffffffffff1673ffffffffffffffffffffffffffffffffffffffff163373ffffffffffffffffffffffffffffffffffffffff1614151561183e57600080fd5b81600390805190602001906118549291906129ac565b5060019050919050565b600f6020528060005260406000206000915054906101000a900460ff1681565b6000600f60003373ffffffffffffffffffffffffffffffffffffffff1673ffffffffffffffffffffffffffffffffffffffff16815260200190815260200160002060009054906101000a900460ff1615156118d857600080fd5b3373ffffffffffffffffffffffffffffffffffffffff167fe1fffcc4923d04b559f4d29a8bfc6cda04eb5b0d3c460751c2402c5c5cc9109c346040518082815260200191505060405180910390a26001905090565b600e602052816000526040600020602052806000526040600020600091509150505481565b60008060009054906101000a900473ffffffffffffffffffffffffffffffffffffffff1673ffffffffffffffffffffffffffffffffffffffff163373ffffffffffffffffffffffffffffffffffffffff161415156119af57600080fd5b6119b88261261d565b60019050919050565b60008060009054906101000a900473ffffffffffffffffffffffffffffffffffffffff1673ffffffffffffffffffffffffffffffffffffffff163373ffffffffffffffffffffffffffffffffffffffff16141515611a1e57600080fd5b600954905090565b600081118015611a74575080601060008473ffffffffffffffffffffffffffffffffffffffff1673ffffffffffffffffffffffffffffffffffffffff16815260200190815260200160002054145b8015611a975750803073ffffffffffffffffffffffffffffffffffffffff163110155b1515611aa257600080fd5b6000601060008473ffffffffffffffffffffffffffffffffffffffff1673ffffffffffffffffffffffffffffffffffffffff16815260200190815260200160002081905550611b3082600d60008573ffffffffffffffffffffffffffffffffffffffff1673ffffffffffffffffffffffffffffffffffffffff16815260200190815260200160002054612163565b8173ffffffffffffffffffffffffffffffffffffffff166108fc829081150290604051600060405180830381858888f19350505050158015611b76573d6000803e3d6000fd5b505050565b600080838311151515611b8d57600080fd5b82840390508091505092915050565b600073ffffffffffffffffffffffffffffffffffffffff168273ffffffffffffffffffffffffffffffffffffffff1614158015611c18575080600d60008573ffffffffffffffffffffffffffffffffffffffff1673ffffffffffffffffffffffffffffffffffffffff1681526020019081526020016000205410155b1515611c2357600080fd5b611c7581600d60008673ffffffffffffffffffffffffffffffffffffffff1673ffffffffffffffffffffffffffffffffffffffff16815260200190815260200160002054611b7b90919063ffffffff16565b600d60008573ffffffffffffffffffffffffffffffffffffffff1673ffffffffffffffffffffffffffffffffffffffff168152602001908152602001600020819055506000600d60008573ffffffffffffffffffffffffffffffffffffffff1673ffffffffffffffffffffffffffffffffffffffff168152602001908152602001600020541415611db057611d9983600c805480602002602001604051908101604052809291908181526020018280548015611d8657602002820191906000526020600020905b8160009054906101000a900473ffffffffffffffffffffffffffffffffffffffff1673ffffffffffffffffffffffffffffffffffffffff1681526020019060010190808311611d3c575b505050505061271790919063ffffffff16565b600c805480919060019003611dae9190612a2c565b505b6000600d60008473ffffffffffffffffffffffffffffffffffffffff1673ffffffffffffffffffffffffffffffffffffffff168152602001908152602001600020541415611e5f57600c8290806001815401808255809150509060018203906000526020600020016000909192909190916101000a81548173ffffffffffffffffffffffffffffffffffffffff021916908373ffffffffffffffffffffffffffffffffffffffff160217905550505b611eb181600d60008573ffffffffffffffffffffffffffffffffffffffff1673ffffffffffffffffffffffffffffffffffffffff168152602001908152602001600020546125fc90919063ffffffff16565b600d60008473ffffffffffffffffffffffffffffffffffffffff1673ffffffffffffffffffffffffffffffffffffffff168152602001908152602001600020819055508173ffffffffffffffffffffffffffffffffffffffff168373ffffffffffffffffffffffffffffffffffffffff167fddf252ad1be2c89b69c2b068fc378daa952ba7f163c4a11628f55a4df523b3ef836040518082815260200191505060405180910390a3505050565b600073ffffffffffffffffffffffffffffffffffffffff168273ffffffffffffffffffffffffffffffffffffffff1614151515611f9a57600080fd5b6000600d60008473ffffffffffffffffffffffffffffffffffffffff1673ffffffffffffffffffffffffffffffffffffffff16815260200190815260200160002054141561204957600c8290806001815401808255809150509060018203906000526020600020016000909192909190916101000a81548173ffffffffffffffffffffffffffffffffffffffff021916908373ffffffffffffffffffffffffffffffffffffffff160217905550505b61209b81600d60008573ffffffffffffffffffffffffffffffffffffffff1673ffffffffffffffffffffffffffffffffffffffff168152602001908152602001600020546125fc90919063ffffffff16565b600d60008473ffffffffffffffffffffffffffffffffffffffff1673ffffffffffffffffffffffffffffffffffffffff168152602001908152602001600020819055506120f3816005546125fc90919063ffffffff16565b6005819055508173ffffffffffffffffffffffffffffffffffffffff168373ffffffffffffffffffffffffffffffffffffffff167fab8530f87dc9b59234c4623bf917212bb2536d647574c8e7e5da92c2ede0c9f8836040518082815260200191505060405180910390a3505050565b600073ffffffffffffffffffffffffffffffffffffffff168273ffffffffffffffffffffffffffffffffffffffff16141580156121df575080600d60008473ffffffffffffffffffffffffffffffffffffffff1673ffffffffffffffffffffffffffffffffffffffff1681526020019081526020016000205410155b15156121ea57600080fd5b61223c81600d60008573ffffffffffffffffffffffffffffffffffffffff1673ffffffffffffffffffffffffffffffffffffffff16815260200190815260200160002054611b7b90919063ffffffff16565b600d60008473ffffffffffffffffffffffffffffffffffffffff1673ffffffffffffffffffffffffffffffffffffffff168152602001908152602001600020819055506000600d60008473ffffffffffffffffffffffffffffffffffffffff1673ffffffffffffffffffffffffffffffffffffffff1681526020019081526020016000205414156123775761236082600c80548060200260200160405190810160405280929190818152602001828054801561234d57602002820191906000526020600020905b8160009054906101000a900473ffffffffffffffffffffffffffffffffffffffff1673ffffffffffffffffffffffffffffffffffffffff1681526020019060010190808311612303575b505050505061271790919063ffffffff16565b600c8054809190600190036123759190612a2c565b505b61238c81600554611b7b90919063ffffffff16565b6005819055508173ffffffffffffffffffffffffffffffffffffffff167fcc16f5dbb4873280815c1ee09dbd06736cffcc184412cf7a71a0fdb75d397ca5826040518082815260200191505060405180910390a25050565b600073ffffffffffffffffffffffffffffffffffffffff16600b60009054906101000a900473ffffffffffffffffffffffffffffffffffffffff1673ffffffffffffffffffffffffffffffffffffffff161415151561244257600080fd5b600b60009054906101000a900473ffffffffffffffffffffffffffffffffffffffff1673ffffffffffffffffffffffffffffffffffffffff1663ca7c4dba6040518163ffffffff167c0100000000000000000000000000000000000000000000000000000000028152600401602060405180830381600087803b1580156124c857600080fd5b505af11580156124dc573d6000803e3d6000fd5b505050506040513d60208110156124f257600080fd5b8101908080519060200190929190505050600a81905550565b600080600073ffffffffffffffffffffffffffffffffffffffff168373ffffffffffffffffffffffffffffffffffffffff161415801561258a57506000600d60008573ffffffffffffffffffffffffffffffffffffffff1673ffffffffffffffffffffffffffffffffffffffff16815260200190815260200160002054115b151561259557600080fd5b6125dd600d60008573ffffffffffffffffffffffffffffffffffffffff1673ffffffffffffffffffffffffffffffffffffffff1681526020019081526020016000205461273f565b90506125f4600a54826127d690919063ffffffff16565b915050919050565b600080828401905083811015151561261357600080fd5b8091505092915050565b600073ffffffffffffffffffffffffffffffffffffffff168173ffffffffffffffffffffffffffffffffffffffff161415151561265957600080fd5b8073ffffffffffffffffffffffffffffffffffffffff166000809054906101000a900473ffffffffffffffffffffffffffffffffffffffff1673ffffffffffffffffffffffffffffffffffffffff167f8be0079c531659141344cd1fd0a4f28419497f9722a3daafe3b4186f6b6457e060405160405180910390a3806000806101000a81548173ffffffffffffffffffffffffffffffffffffffff021916908373ffffffffffffffffffffffffffffffffffffffff16021790555050565b6000612723838361281f565b905060008112151561273a5761273983826128c8565b5b505050565b6000806000806000806725b946ebc0b361739450670de0b6b3a7640000935042925061277660085484611b7b90919063ffffffff16565b91506127b56127a661279763b964f00060065461298290919063ffffffff16565b846127d690919063ffffffff16565b886127d690919063ffffffff16565b90506127ca81886125fc90919063ffffffff16565b95505050505050919050565b60008060008414806127e85750600083145b156127f65760009150612818565b828402905082848281151561280757fe5b0414151561281457600080fd5b8091505b5092915050565b6000806000845111151561282f57fe5b600090505b835181101561289d578273ffffffffffffffffffffffffffffffffffffffff16848281518110151561286257fe5b9060200190602002015173ffffffffffffffffffffffffffffffffffffffff161415612890578091506128c1565b8080600101915050612834565b7fffffffffffffffffffffffffffffffffffffffffffffffffffffffffffffffff91505b5092915050565b600082511180156128da575060008110155b15156128e257fe5b8160018351038151811015156128f457fe5b90602001906020020151828281518110151561290c57fe5b9060200190602002019073ffffffffffffffffffffffffffffffffffffffff16908173ffffffffffffffffffffffffffffffffffffffff168152505081600183510381518110151561295a57fe5b906020019060200201600073ffffffffffffffffffffffffffffffffffffffff168152505050565b60008060008311151561299457600080fd5b828481151561299f57fe5b0490508091505092915050565b828054600181600116156101000203166002900490600052602060002090601f016020900481019282601f106129ed57805160ff1916838001178555612a1b565b82800160010185558215612a1b579182015b82811115612a1a5782518255916020019190600101906129ff565b5b509050612a289190612a58565b5090565b815481835581811115612a5357818360005260206000209182019101612a529190612a58565b5b505050565b612a7a91905b80821115612a76576000816000905550600101612a5e565b5090565b905600a165627a7a72305820ff7b9f34f9195986bff2cd9573f84eddfab60b0ad18837c999566c2ff31423550029",
  "source": "pragma solidity ^0.4.24;\n\nimport './SafeMath.sol';\nimport './ManageAddresses.sol';\nimport './Owned.sol';\nimport './BambooPriceOracle.sol';\n\ncontract BambooFinance is Owned {\n  using SafeMath for uint256;\n  using ManageAddresses for address[];\n\n  string public name = 'Bamboo Finance Token';\n  string public symbol = 'BAMBOO';\n  string public contactInformation;\n  uint8 public decimals = 0;\n  uint public totalSupply;\n  uint internal interestRate = 12;\n  uint internal initialValue;\n  uint internal start;\n  uint internal totalCredit;\n  uint internal etherPrice;\n  BambooPriceOracle internal oracle;\n\n  address[] internal accounts;\n\n  mapping (address => uint) public balanceOf;\n  mapping (address => mapping (address => uint)) public allowance;\n  mapping (address => bool) public approvedMint;\n  mapping (address => uint) internal shares;\n\n  event Transfer(address indexed _from, address indexed _to, uint _value);\n  event Approval(address indexed _owner, address indexed _spender, uint _value);\n  event SetMinter(address indexed _account, bool _approval);\n  event Mint(address indexed _from, address indexed _to, uint _value);\n  event Burn(address indexed _from, uint _value);\n  event Withdraw(address indexed _account, uint _value);\n  event Deposit(address indexed _account, uint _value);\n  event Donation(address indexed _account, uint _value);\n  event EndOfContract(address indexed _account);\n\n  constructor(uint _initialSupply, uint _initialValue, string _contactInformation) public {\n    start = now;\n    totalSupply = _initialSupply;\n    initialValue = _initialValue;\n    totalCredit = 0;\n    balanceOf[msg.sender] = _initialSupply;\n    approvedMint[msg.sender] = true;\n    contactInformation = _contactInformation;\n  }\n\n  // fallback function\n  function() public payable {\n    if (msg.value > 0) {\n      emit Donation(msg.sender, msg.value);\n    }\n  }\n\n  modifier onlyApprovedMint {\n    require(approvedMint[msg.sender]);\n    _;\n  }\n\n  function setOracle(address _oracle) public onlyOwner returns (bool success) {\n    require(_oracle != address(0));\n    oracle = BambooPriceOracle(_oracle);\n    return true;\n  }\n\n  function _updateEtherPrice() internal {\n    require(oracle != address(0));\n    etherPrice = oracle.getEtherPrice();\n  }\n\n  function _mint(address _from, address _to, uint _value) internal {\n    require(_to != address(0));\n    if (balanceOf[_to] == 0) {\n      accounts.push(_to);\n    }\n    balanceOf[_to] = balanceOf[_to].add(_value);\n    totalSupply = totalSupply.add(_value);\n    emit Mint(_from, _to, _value);\n  }\n\n  function _transfer(address _from, address _to, uint _value) internal {\n    require(_to != address(0) && balanceOf[_from] >= _value);\n    balanceOf[_from] = balanceOf[_from].subtract(_value);\n    if (balanceOf[_from] == 0) {\n      accounts.remove(_from);\n      accounts.length--;\n    }\n    if (balanceOf[_to] == 0) {\n      accounts.push(_to);\n    }\n    balanceOf[_to] = balanceOf[_to].add(_value);\n    emit Transfer(_from, _to, _value);\n  }\n\n  function _burn(address _account, uint _value) internal {\n    require(_account != address(0) && balanceOf[_account] >= _value);\n    balanceOf[_account] = balanceOf[_account].subtract(_value);\n    if (balanceOf[_account] == 0) {\n      accounts.remove(_account);\n      accounts.length--;\n    }\n    totalSupply = totalSupply.subtract(_value);\n    emit Burn(_account, _value);\n  }\n\n  function setContactInformation(string _contactInformation) public onlyOwner returns (bool success) {\n    contactInformation = _contactInformation;\n    return true;\n  }\n\n  function transfer(address _to, uint _value) public returns (bool success) {\n    _transfer(msg.sender, _to, _value);\n    return true;\n  }\n\n  function approve(address _spender, uint _value) public returns (bool success) {\n    require(_spender != address(0));\n    allowance[msg.sender][_spender] = _value;\n    emit Approval(msg.sender, _spender, _value);\n    return true;\n  }\n\n  function transferFrom(address _from, address _to, uint _value) public returns (bool success) {\n    require(allowance[_from][msg.sender] >= _value);\n    allowance[_from][msg.sender] = allowance[_from][msg.sender].subtract(_value);\n    _transfer(_from, _to, _value);\n    return true;\n  }\n\n  function burn(uint _value) public returns (bool success) {\n    _burn(msg.sender, _value);\n    return true;\n  }\n\n  function burnFrom(address _from, uint _value) public returns (bool success) {\n    require(allowance[_from][msg.sender] >= _value);\n    allowance[_from][msg.sender] = allowance[_from][msg.sender].subtract(_value);\n    _burn(_from, _value);\n    return true;\n  }\n\n  function setApprovedMint(address _account, bool _approval) public onlyOwner returns (bool success) {\n    require(_account != address(0));\n    approvedMint[_account] = _approval;\n    emit SetMinter(_account, _approval);\n    return true;\n  }\n\n  function mint(address _to, uint _value) public onlyApprovedMint returns (bool success) {\n    _mint(msg.sender, _to, _value);\n    return true;\n  }\n\n  function _calculateInterest(uint _balance) internal view returns (uint) {\n    uint E = 2718281828459045235;\n    uint D = 1000000000000000000;\n    uint present = now;\n    uint period = present.subtract(start);\n    uint interest = _balance.multiply(period.multiply(interestRate.divide(3110400000)));\n    return _balance.add(interest);\n  }\n\n  function _calculateAccountShare(address _account) internal view returns (uint share) {\n    require(_account != address(0) && balanceOf[_account] > 0);\n    uint value = _calculateInterest(balanceOf[_account]);\n    return value.multiply(etherPrice);\n  }\n\n  function calculateShares() public onlyOwner returns (bool success) {\n    require(accounts.length > 0);\n    _updateEtherPrice();\n    uint credit = 0;\n    for (uint i = 0; i < accounts.length; i++) {\n      uint share = _calculateAccountShare(accounts[i]);\n      shares[accounts[i]] = share;\n      credit.add(share);\n    }\n    totalCredit = credit;\n    return true;\n  }\n\n  function getTotalCredit() public view onlyOwner returns (uint) {\n    return totalCredit;\n  }\n\n  function deposit() public payable onlyApprovedMint returns (bool success) {\n    emit Deposit(msg.sender, msg.value);\n    return true;\n  }\n\n  function _sendShare(address _account, uint _value) internal {\n    require(_value > 0 && shares[_account] == _value && address(this).balance >= _value);\n    shares[_account] = 0;\n    _burn(_account, balanceOf[_account]);\n    _account.transfer(_value);\n  }\n\n  function withdrawShare() external returns (bool success) {\n    require(shares[msg.sender] > 0);\n    uint share = shares[msg.sender];\n    _sendShare(msg.sender, share);\n    emit Withdraw(msg.sender, share);\n    return true;\n  }\n\n  function destroy(address _to) public onlyOwner {\n    require(calculateShares());\n    require(address(this).balance >= totalCredit);\n    emit EndOfContract(msg.sender);\n    uint share;\n    for (uint i = 0; i < accounts.length; i++) {\n      share = shares[accounts[i]];\n      _sendShare(accounts[i], share);\n    }\n    selfdestruct(_to);\n  }\n\n}\n",
  "sourcePath": "/home/aoides/Desktop/programming-studies/bamboofinance/contracts/BambooFinance.sol",
  "compiler": {
    "name": "solc",
    "version": "0.4.24+commit.e67f0147.Emscripten.clang"
  },
  "schemaVersion": "2.0.1",
  "updatedAt": "2018-08-30T19:54:48.634Z"
}